:100000000C9405010C949E1F0C94CF1F0C9400209F
:100010000C9431200C9462200C9493200C94C420F6
:100020000C94F5200C9436010C9436010C94360196
:100030000C9436010C94FA260C9436010C9436017B
:100040000C9436010C9498030C9436030C943601EE
:100050000C9436010C9436010C9436010C94262134
:100060000C9436010C9493230C9436010C943601B5
:100070000C9436010C9436010C9436010C94360124
:100080000C9436010C9436010C9436010C94360114
:100090000C94BF230C9436010C9436010C94360159
:1000A0000C9436010C9436010C9436010C943601F4
:1000B0000C9436010C9436010C9436010C943601E4
:1000C0000C9436010C9436010C9436010C94EB23FD
:1000D0000C9436010C9436010C9417240C943601C0
:1000E0000C94360100002100240027002A002D0076
:1000F0003000330001010000040107010A01000083
:100100002200250028002B002E00310034000201BF
:100110000000050108010B0100002000230026005B
:1001200029002C002F00320000010000030106010D
:10013000090105050505070508080808020202026D
:100140000A0A080804040404010101010101010173
:100150000303030303030303040707070C0C0C0C3E
:100160000C0C0C0C02020202060606060606060627
:100170000B0B0B0B0B0B0B0B0102102020080810B4
:100180002040102040800201020108040201010207
:1001900004081020408080402010080402018004E0
:1001A000020180402010080402010804020101023B
:1001B0000408102040800102040810204080000044
:1001C000090A02080B0C0D070603040100000000D9
:1001D000000000000000000000000000000000001F
:1001E00000000000000000000000100F0E000000E2
:1001F00000000000000000000000000000000000FF
:10020000000000000200A11EA02411241FBECFEF99
:10021000D1E2DEBFCDBF00E00CBF18E0A0E0B2E04D
:10022000E2E7F7E500E00BBF02C007900D92A237AE
:10023000B107D9F713E1A2E7B8E001C01D92A535D7
:10024000B107E1F712E0CAE0D2E000E006C0229771
:100250000109FE010BBF0E94B32BC630D10780E01D
:100260000807A9F70E9470250C949B2A0C940000A3
:10027000249A259A269A2C9A279A2F980895FC0159
:10028000108A17860895AF92BF92CF92DF92EF92B5
:10029000FF920F931F93DF93CF93CDB7DEB72897CD
:1002A0000FB6F894DEBF0FBECDBF8C015B016A01B3
:1002B000FC0186819781A085B1850097A105B105D4
:1002C00079F57E010894E11CF11CD8011F968D91EF
:1002D0009C915097B70148E050E00E94700688302A
:1002E000910509F05AC0C70160E072E044E050E0B7
:1002F0000E94D02A4D815E816F817885009731F40C
:10030000F80146835783608771870AC0D8011F961A
:100310008D919C9150970E94E1058823B1F63DC0D4
:10032000D8011F96ED91FC9150972185328531704F
:1003300080E092E0821B930B4C2D5D2D8417950776
:1003400008F4AC01D80116966D917D918D919C9128
:1003500019976A01EE24FF246C157D058E059F0513
:1003600008F4AB01CF01B5010E9470069C0118167C
:100370001906ACF4AC01662757FD6095762FF8019D
:1003800086819781A085B185841B950BA60BB70B41
:1003900086839783A087B18702C02FEF3FEFC90103
:1003A00028960FB6F894DEBF0FBECDBFCF91DF9178
:1003B0001F910F91FF90EF90DF90CF90BF90AF9083
:1003C00008950F931F93CF93DF93EC0190937308DD
:1003D0008093720804E718E0B80140E052E00E9400
:1003E0004301181619060CF04AC01093770C0093BD
:1003F000760C800F911F9093750C8093740C04E71A
:100400001AE0CE01B80140E052E00E94430197FD9E
:1004100036C01093790C0093780C800F911F909345
:100420007B0C80937A0C81E080937C0C8A870E94FD
:1004300038011092800089E080938100688170E02B
:1004400080E090E029813A814B815C810E94432BBE
:100450009B01AC0160E074E284EF90E00E94762B97
:10046000309389002093880081E090E090938B0086
:1004700080938A0080916F00826080936F00DF918B
:10048000CF911F910F910895CF92DF92EF92FF923B
:100490000F931F93DF93CF93CDB7DEB762970FB65D
:1004A000F894DEBF0FBECDBF8C016B01CB010E9463
:1004B0001A07C6017E010894E11CF11CB7014CE04B
:1004C00050E00E9470068C30910509F094C0C7017D
:1004D00065E072E044E050E00E94D02A009709F005
:1004E0008AC0CE0109966AE072E044E050E00E94C2
:1004F000D02A009709F07FC08EC0C7016FE072E07C
:1005000044E050E00E94D02A009709F074C08DC0EA
:1005100022E1E216F10461F4C601BE016F5F7F4F74
:10052000A7010E9470068E159F0509F064C002C0E5
:100530001A82198289819A818130910541F482E180
:10054000E816F10439F489899A89009719F084E151
:1005500092E04FC08B81F8018083833018F08EE2E7
:1005600092E047C0823021F48FE392E00E94700B4A
:10057000EF84F801E582FE2DF13118F085E592E077
:1005800038C02D813E814F815885F8012183328307
:1005900043835483608170E080E090E00E94432BAD
:1005A0009B01AC016534FCEA7F07F0E08F07F0E0C7
:1005B0009F07B0F46E2D70E080E090E00E94432B26
:1005C00023E096958795779567952A95D1F76534B9
:1005D0002CEA720720E0820720E0920720F42DC069
:1005E00083E792E006C0F601808183FD26C089E89A
:1005F00092E00E94700B80E062960FB6F894DEBF26
:100600000FBECDBFCF91DF911F910F91FF90EF9063
:10061000DF90CF900895C601B70148E050E00E94F6
:1006200070068830910539F768CFED80FE80F0E1E3
:10063000EF16F10409F06CCF6FCFF801D08AC786AE
:1006400013861486158616861286168217821086E1
:100650001186C80160E070E040E050E00E94430174
:10066000892F8095881F8827881FC6CF1F920F92D9
:100670000FB60F920BB60F9211242F933F934F9307
:100680005F936F937F938F939F93AF93BF93EF93FA
:10069000FF9380916F008B7F80936F0080917C0C23
:1006A000823021F578946091780C7091790C80916A
:1006B00072089091730840E052E00E944301F89460
:1006C0002091780C3091790C1816190644F4280FF3
:1006D000391F30937B0C20937A0C81E005C0309356
:1006E0007B0C20937A0C83E080937C0CFF91EF913C
:1006F000BF91AF919F918F917F916F915F914F913A
:100700003F912F910F900BBE0F900FBE0F901F9037
:100710001895EFE6F0E080818D7F8083E09172088C
:10072000F09173081286109273081092720808955F
:100730001F920F920FB60F920BB60F9211242F93A8
:100740003F934F935F936F937F938F939F93AF9359
:10075000BF93EF93FF93E0917208F0917308309785
:1007600009F4CEC02091760C3091770C8091740CF6
:100770009091750C2817390708F447C080917C0CBC
:10078000813031F58091780C9091790C9093770CB1
:100790008093760C20917A0C30917B0C3093750C01
:1007A0002093740C28E08437920719F084E798E0CE
:1007B00002C084E79AE09093790C8093780C82E0F1
:1007C00080937C0C80916F00846080936F001DC0CB
:1007D000833021F4CF010E94890392C026813781A2
:1007E00040855185211531054105510509F488C021
:1007F00023853485458556852F5F3F4F4F4F5F4F8B
:1008000023873487458756877BC0E0917208F09133
:1008100073088581E091760CF091770C803149F472
:100820008181805890813296F093770CE093760C1A
:1008300006C08191F093770CE093760C90E02C98B1
:100840002E982D9A2D982D9A2D982E9A2D9A2D9876
:100850002D9A2D9887FF02C02E9A01C02E982D9AAE
:100860002D9886FF02C02E9A01C02E982D9A2D98A1
:1008700085FF02C02E9A01C02E982D9A2D9884FFD4
:1008800002C02E9A01C02E982D9A2D9883FF02C087
:100890002E9A01C02E982D9A2D9882FF02C02E9A72
:1008A00001C02E982D9A2D9881FF02C02E9A01C06A
:1008B0002E982D9A2D9880FF02C02E9A01C02E9856
:1008C0002D9A2D9897FF02C02E9A01C02E982D9A2E
:1008D0002D98892F96FF02C02E9A01C02E982D9A2E
:1008E0002D9885FF02C02E9A01C02E982D9A2D9822
:1008F00084FF02C02E9A01C02E982D9A2D982C9A12
:10090000FF91EF91BF91AF919F918F917F916F91E7
:100910005F914F913F912F910F900BBE0F900FBEA3
:100920000F901F901895EF92FF920F931F93DF93F4
:10093000CF9300D000D0CDB7DEB7FC01DB01CA01F8
:10094000423051056105710508F45CC0258136818E
:10095000478150852E5F3F4F4F4F5F4F8217930760
:10096000A407B50708F04EC02289203241F5AC013A
:10097000BD01B7E07695679557954795BA95D1F73C
:100980000685178520893189400F511F621F731F0B
:100990009C01220F331F220F331F317083899489EA
:1009A0008E010D5F1F4FE4E0EE2EF12C0E94BC0A79
:1009B000882341F12B813C814D815E8126C020310D
:1009C00009F5492F5A2F6B2F772706851785208920
:1009D0003189400F511F621F731F9C01220F331F6B
:1009E0003170838994898E010F5F1F4FE2E0EE2EF4
:1009F000F12C0E94BC0A882329F029813A8140E029
:100A000050E003C020E030E0A901B901CA012696F8
:100A10000FB6F894DEBF0FBECDBFCF91DF911F910F
:100A20000F91FF90EF9008952F923F924F925F9217
:100A30006F927F928F929F92AF92BF92CF92DF92EE
:100A4000EF92FF920F931F93DF93CF9300D00F92FB
:100A5000CDB7DEB79C838B837A836983FC01818564
:100A60009285A385B485BC010FEF202E01E0302EC6
:100A70002822392220E032E022193309C42ED52E53
:100A80002C153D0508F46901EB81FC81E180F280C1
:100A9000038114814601AA24BB24A8019701281BC5
:100AA000390B4A0B5B0B281539054A055B0518F411
:100AB0006701C61AD70AEB81FC81208127702C01BF
:100AC0003D0119E076946794579447941A95D1F7AD
:100AD000E188F288223061F4D70157964D915D91FB
:100AE0006D917C915A97440D551D661D771D2FC041
:100AF000F7018080682D70E080E090E0AB81BC81E0
:100B000015962D913D914D915C9118972250304052
:100B1000404050400E94432BAB01BC01F70181854E
:100B20009285A385B485480F591F6A1F7B1F99249E
:100B3000089481089108AA2497FCA094BA2C8420D8
:100B40009520A620B720480D591D6A1D7B1DAB813D
:100B5000BC815196ED91FC915297838994899101C2
:100B600009811A8176010E94BC0A882311F096013E
:100B700002C02FEF3FEFC9010F900F900F900F9021
:100B8000CF91DF911F910F91FF90EF90DF90CF9069
:100B9000BF90AF909F908F907F906F905F904F909D
:100BA0003F902F900895FC01258536854785508913
:100BB00025833683478350871186128613861486D1
:100BC00008955F926F927F928F929F92AF92BF92A1
:100BD000CF92DF92EF92FF920F931F93CF93DF9309
:100BE000EC0169847A848B849C84460D571D681DB2
:100BF000791D89819A81AB81BC8184179507A607ED
:100C0000B70708F45CC0E989FA89A08049875A8748
:100C10006B877C875880852D8770823009F44DC0A2
:100C2000BB24CC24DD24CB01BA0139E0969587950D
:100C3000779567953A95D1F7A60195010E94762B95
:100C400079018A01C401B30129E0969587957795CA
:100C500067952A95D1F7A60195010E94762BE21A95
:100C6000F30A040B150B53FE23C08D819E81AF81C7
:100C7000B8858E0D9F1DA01FB11F8D839E83AF83EE
:100C8000B8871BC04D815E816F81788589899A897B
:100C90000E9493046D837E838F8398870894E10874
:100CA000F10801091109611571058105910539F0F6
:100CB000E114F1040105110529F781E001C080E08C
:100CC000DF91CF911F910F91FF90EF90DF90CF9028
:100CD000BF90AF909F908F907F906F905F9008959E
:100CE000AF92BF92CF92DF92EF92FF920F931F933A
:100CF000CF93DF935C016A01E62EF72EC0E0D0E0CF
:100D000004C0E00EF11EC00FD11FCC15DD05D0F4DC
:100D1000A6014C1B5D0BC501B7010E9414058C0197
:100D2000181619061CF097FF0DC00AC0AC01662703
:100D300057FD6095762FC5010E94E105882309F7CC
:100D4000CFEFDFEFCE01DF91CF911F910F91FF9099
:100D5000EF90DF90CF90BF90AF9008950F931F93C7
:100D6000CF93DF938C01EB01FC018081877082308F
:100D700068F41EC09E3251F02B8530E0287130702F
:100D800021153105B1F02031310599F0C801BE01BE
:100D900040E250E00E947006803231F4988199233D
:100DA00029F0953E39F7F2CF18161CF480E001C007
:100DB0008FEFDF91CF911F910F910895EF92FF92E6
:100DC0000F931F93CF93DF93EC017A018B011FC028
:100DD0000894E11CF11C011D111D6E157F05800793
:100DE000910799F02A89203129F428EF3FEF40E05C
:100DF00050E004C028EF3FEF4FEF5FE0E1E0621703
:100E000073078407950770F40CC07B018C01CE0139
:100E1000B801A7010E949304611571058105910530
:100E2000B9F6E0E08E2FDF91CF911F910F91FF90E7
:100E3000EF900895CF93DF93EC018881877091F054
:100E40004D855E856F857889411551056105710570
:100E500049F089899A890E94DE06882319F08881E1
:100E600088608883DF91CF910895CF92DF92EF92CF
:100E7000FF920F931F93CF93DF93EC01EE24FF2497
:100E800087010DC08881D82EDD0CCC24C601AA278D
:100E900097FDA095BA2FE80EF91E0A1F1B1FCE0161
:100EA0000E949304AB01BC01411551056105710518
:100EB00049F7B701C801DF91CF911F910F91FF90C2
:100EC000EF90DF90CF9008950F931F93CF93DF9310
:100ED000EC018B01FB0182898031B1F482E08883CF
:100EE0001D861E861F86188A85899689A0E0B0E037
:100EF00045E0880F991FAA1FBB1F4A95D1F7898328
:100F00009A83AB83BC8314C0803211F583E088835D
:100F1000FB014789508D618D728D4D875E876F878C
:100F2000788BC8010E94350769837A838B839C8301
:100F30001A8B098B8D859E85AF85B8898D839E839D
:100F4000AF83B88719861A861B861C8681E001C08C
:100F500080E0DF91CF911F910F9108950F931F9320
:100F6000CF93DF93EC018B01FA01DB0152968C9158
:100F70005297803108F447C08081882309F443C028
:100F8000853E09F440C04489558960E070E0BA01AB
:100F900055274427828D938DA0E0B0E0482B592B34
:100FA0006A2B7B2B4D875E876F87788B838590E0DC
:100FB00088719070009759F481E08883848D958DB5
:100FC000A68DB78D89839A83AB83BC830CC0803197
:100FD0009105C9F484E08883C8010E9435076983BC
:100FE0007A838B839C831A8B098B8D859E85AF8535
:100FF000B8898D839E83AF83B88719861A861B862E
:101000001C8681E001C080E0DF91CF911F910F919C
:1010100008952F923F925F926F927F928F929F924C
:10102000AF92BF92CF92DF92EF92FF920F931F93F6
:10103000DF93CF93CDB7DEB7A5970FB6F894DEBF99
:101040000FBECDBF6C01CB01F601748B638B4423C3
:10105000C1F1453008F003C1242F30E0A4E0220F95
:10106000331FAA95E1F722553E4F40E050E0BA0108
:101070005E010894A11CB11C8501F0E1EF2EF12C5A
:101080000E94BC0A882309F4EAC0898190E08F7726
:101090009070009709F0E3C0F50184859585A685D9
:1010A000B78584369105A105B10508F4D8C06084E0
:1010B000718482849384611471048104910421F405
:1010C000CEC0662477244301F60183899489B40154
:1010D000A3012BE030E05E010894A11CB11C850146
:1010E000E5E2EE2EF12C0E94BC0A882309F4B7C079
:1010F00089819A81F2E080309F0709F0B0C0F50144
:101100002581222309F4ABC0E380F480E114F104CB
:1011100009F4A5C05280552009F4A1C0452D50E026
:10112000CA01019784239523009709F098C0F6011E
:1011300025875082F501638574856115710519F065
:1011400080E090E005C0F501618D728D838D948DF6
:10115000F6016183728383839483F501268037804F
:10116000F601368A258A00E010E0E60CF71C081D1F
:10117000191DE686F786008B118B30E040E050E0C9
:101180000E94432B9B01AC012E0D3F1D401F511FA0
:10119000F601278B308F418F528FC10175E0880F88
:1011A000991F7A95E1F781509E4F892F992786954F
:1011B000A0E0B0E0820F931FA41FB51F8187928724
:1011C000A387B487F501208531852115310519F0F4
:1011D00040E050E005C0F501258936894789508DEA
:1011E000F601238F348F458F568F84017301E81ADF
:1011F000F90A0A0B1B0BC801B701620F731F841F8A
:10120000951F252D30E040E050E00E94762BF6013E
:101210002583368347835087253FFFE03F07F0E073
:101220004F07F0E05F0710F48CE009C0253FFFEFA7
:101230003F07F0E04F07F0E05F0718F480E1F601A8
:101240000BC0F50181A192A1A3A1B4A1F601878BE6
:10125000908FA18FB28F80E2828B81E001C080E00D
:10126000A5960FB6F894DEBF0FBECDBFCF91DF912C
:101270001F910F91FF90EF90DF90CF90BF90AF90B4
:101280009F908F907F906F905F903F902F900895E8
:101290008EBD0DB407FEFDCF08958FEF0E94480963
:1012A0008EB5089585E361E00E94CC228FEF0E9405
:1012B0004809089585E360E00E94CC220895CF9309
:1012C000DF93EC018E818823C9F08FEF8EBD4FEF45
:1012D00004C00DB407FEFDCF4EBD8F8198859C01E3
:1012E0002F5F3F4F38872F8322E08130920788F3AA
:1012F0000DB407FEFDCF0E9452091E82DF91CF91EF
:1013000008950F931F93CF93DF93EB010E946E21FB
:101310008B0107C00E946E21601B710BC617D70797
:1013200030F00E944D098F3FA9F781E001C080E0B5
:10133000DF91CF911F910F910895DF92EF92FF926D
:101340000F931F93CF93DF93EC01D62E79018A017F
:101350000E945F090E945A09CE016CE271E00E946E
:1013600081098D2D80640E944809C8E1D0E0D80130
:10137000C7010C2E04C0B695A795979587950A943A
:10138000D2F70E94480928973FEFC83FD30779F763
:10139000DD2029F08D2D883021F08FEF03C085E905
:1013A00001C087E80E94480910E00E944D0987FFAC
:1013B00002C01150D1F7DF91CF911F910F91FF9093
:1013C000EF90DF900895FF920F931F93CF93DF93D9
:1013D000EC01F62E85E361E00E94A82285E361E03E
:1013E0000E94CC2283E361E00E94A82282E360E0B5
:1013F0000E94A82284E361E00E94A82282E58CBDBD
:101400001AE08FEF0E9448091150D9F70E945A093B
:1014100001E012E00E944D0901501040D9F710E0A0
:10142000CE0160E020E030E0A9010E949D09082F74
:10143000813041F01A3021F481E08C830D8319C092
:101440001F5FEECFCE0168E02AEA31E040E050E0D5
:101450000E949D09813091F40E944D090E944D091E
:101460000E944D090E944D098A3A29F099E09C8317
:101470008D8380E056C082E08B8707C082FF02C068
:101480000B8703C092E09C838D830E946E218B01A9
:10149000CE0167E320E030E0A9010E949D098B8521
:1014A000823029F420E030E040E050E403C020E046
:1014B00030E0A901CE0169E20E949D09882351F024
:1014C0000E946E21601B710B87E0613D780700F37D
:1014D00086E00DC08B858230C9F4CE016AE320E03E
:1014E00030E0A9010E949D09882319F085E08C83D2
:1014F000C0CF0E944D09807C803C11F483E08B8733
:101500000E944D090E944D090E944D098CB58C7FA7
:101510008CBDFF2019F48DB581608DBD0E945209EC
:1015200081E0DF91CF911F910F91FF9008950F936C
:101530001F93CF93DF93EC010E946E218B010BC0B0
:101540000E946E21601B710B81E06D32780718F0EC
:101550008DE08C8309C00E944D098F3F89F38E3F37
:1015600029F090E19C838D8380E001C081E0DF91D0
:10157000CF911F910F9108958F929F92AF92BF923A
:10158000CF92DF92EF92FF920F931F93CF93DF934F
:10159000EC015A016B014901E114F10409F47BC02B
:1015A000C701820F931F22E08130920708F071C0BB
:1015B0008E81882371F088819981AA81BB81481727
:1015C00059076A077B0729F48F8198858816990641
:1015D00018F5A882B982CA82DB828B85833039F004
:1015E00059E0AA0CBB1CCC1CDD1C5A95D1F7CE01CE
:1015F00061E1A60195010E949D09882319F083E00D
:101600008C8347C0CE010E94970A882309F441C009
:1016100018861F8281E08E838FEF8EBD2FEF09C069
:101620000DB407FEFDCF2EBD8F819885019698875A
:101630008F838F8198858815990590F397012150A4
:101640003040F80180E090E04FEF07C00DB407FE96
:10165000FDCF5EB551934EBD019682179307B0F34F
:101660000DB407FEFDCF8EB5020F131FF801808366
:101670008F8198858E0D9F1D98878F8329852223C2
:1016800021F0F2E080309F0730F0CE010E945F0928
:1016900002C080E001C081E0DF91CF911F910F91E6
:1016A000FF90EF90DF90CF90BF90AF909F908F9082
:1016B0000895CF93DF93CFE2DFE0CE0140E855E21B
:1016C00060E070E00E944324CE010E94552364E64E
:1016D00070E080E090E00E94A221DF91CF91089518
:1016E000BC018FE29FE00E94932664E670E080E0F8
:1016F00090E00E94A2210895BC018FE29FE040E1AA
:1017000050E00E949E2664E670E080E090E00E9437
:10171000A221089580912D0861E00E94CC2264E608
:1017200070E080E090E00E94A22180912D0860E0AE
:101730000E94CC220895CF92DF92EF92FF920F93F6
:101740001F93CF93DF93C82EE6017E01F92EE701A8
:101750006E011991812F992787FD90950E949E2AED
:101760000097B1F71232A1F38C2D9D2DDF91CF910F
:101770001F910F91FF90EF90DF90CF900895DF922F
:10178000EF92FF920F931F93CF93DF938C01EC01A5
:1017900009900020E9F72197C81BD90BC80FD91F62
:1017A0007E01DA908D2D992787FD90950E949E2AC3
:1017B0000097B1F78D2D823299F3F7011082C8019D
:1017C000DF91CF911F910F91FF90EF90DF900895DF
:1017D0000E949B0B0E94BF0B08952F923F924F9245
:1017E0005F926F927F928F929F92AF92BF92CF92B1
:1017F000DF92EF92FF920F931F93DF93CF93CDB7BA
:10180000DEB72A970FB6F894DEBF0FBECDBF5C01DE
:101810004B013A01DC010D911C9111970115110545
:1018200009F4F0C06115710509F4ECC0FB01808179
:10183000882309F4E7C0C8010E94ED2A009709F443
:10184000E1C06114710421F484EA682E82E0782EEC
:10185000F80101900020E9F7BF0161507040601B62
:10186000710BD4010D900020E9F71197A819B9095F
:10187000F30101900020E9F76F010894C108D10835
:10188000C618D7089D012C193D0980E090E0AD01F4
:10189000415050405C834B83F901E095F095FE8305
:1018A000ED83FB01B5015D01A1C0EB80FC804E150D
:1018B0005F0509F07FC012161306ACF5DC0100E0ED
:1018C00010E02F01481A590A7C01F887EF836981DB
:1018D0007A817A8769870EC0CB018A0F9B1FFB0133
:1018E000E20FF31FEA0FFB1F6081FC0160830F5FB3
:1018F0001F4F1196E985FA856081718104151505E0
:101900005CF3EF81F885C701E984FA84FA82E98201
:10191000E21BF30B6E0F7F1FDB011C920D811E81FA
:10192000080F191F28C02115310521F1E21BF30B07
:10193000DF017C01E21AF30A8C01CF010BC02B01FD
:101940004A0E5B1EFB01E20FF31FEA0FFB1F6081D3
:10195000F20160831197E981FA8160817181EA1651
:10196000FB066CF3FC01C8016E0F7F1FDB011C92AC
:10197000890101C08C0160E070E078866F82780197
:101980008A01AF0111C0EF81F8854190F887EF839C
:10199000A981BA81ED91FC911197E80FF91FE60F2B
:1019A000F71F40826F5F7F4F6C157D0564F3FA016E
:1019B000A801C7014F5F5F4F4A155B05A4F4BA0148
:1019C000680F791F6E177F0774F4D1010D911D0107
:1019D000A981BA81ED90FC90E60EF71ED7016C91BB
:1019E000601709F462CF69817A8101968E179F078B
:1019F00034F4140140E050E07A836983DDCFFB01C9
:101A000000811181C8012A960FB6F894DEBF0FBE7F
:101A1000CDBFCF91DF911F910F91FF90EF90DF909D
:101A2000CF90BF90AF909F908F907F906F905F907E
:101A30004F903F902F900895AF92BF92CF92DF9238
:101A4000EF92FF920F931F93CF93DF935C018B0173
:101A5000EC01F880E9808F2D9E2D0E94ED2A0097E1
:101A600009F440C0AF2DBE2DFD0101900020E9F723
:101A70003197EA1BFB0BD8010D900020E9F7119775
:101A8000A01BB10BEA1BFB0BDD247D010894E108D0
:101A9000F1081FC0E50148815981EB01C990BE01E1
:101AA0009A01280F391F2E0F3F1FE90128812C159D
:101AB00079F48E159F0541F44E0F5F1F4150504041
:101AC000EA011882DD24D39401968A179B0714F348
:101AD0003196F7FD07C0DD2029F4602F712F80E0DB
:101AE00090E0F3CFF50180819181DF91CF911F913B
:101AF0000F91FF90EF90DF90CF90BF90AF9008953F
:101B0000AF92BF92CF92DF92EF92FF920F931F930B
:101B1000CF93DF936C018A01E901FC01A080B180C1
:101B2000C5010E94C12A7C01CE010197E816F90681
:101B300014F0229701C0E701C801B501AE010E946F
:101B4000DE2AC00FD11F1882E80109900020E9F7B2
:101B50002197C01BD10BC8010E94E80B9C01FC011E
:101B600001900020E9F73197E81BF90BCE018E1B9D
:101B70009F0B8230910521F4C20FD31F2297188248
:101B80000894E11CF11CF601808191818E0D9F1D4E
:101B900091838083C901DF91CF911F910F91FF90B5
:101BA000EF90DF90CF90BF90AF9008952F923F922B
:101BB0004F925F926F927F928F929F92AF92BF925D
:101BC000CF92DF92EF92FF920F931F93CF93DF9309
:101BD0005C013B012A01490168010097A1F18C01D8
:101BE00001C08C0104531E4FF80180819181009740
:101BF000C1F78EEC91E00E944A29282EE1011E01D6
:101C0000392EF80131822082F101E453FE4F118216
:101C10001082C101B3010E94BA2AC1010796B20124
:101C20000E94BA2AC1018396B4010E94BA2AC10156
:101C30008E96B6010E94BA2AC101CC96B7010E94C5
:101C4000BA2AC50128C08EEC91E00E944A29092FCA
:101C5000282EE1015E01B92EF501E453FE4F1182F9
:101C60001082C501B3010E94BA2AC5010796B201CC
:101C70000E94BA2AC5018396B4010E94BA2AC501FE
:101C80008E96B6010E94BA2AC501CC96B7010E9471
:101C9000BA2A8A2D902FDF91CF911F910F91FF903B
:101CA000EF90DF90CF90BF90AF909F908F907F90FC
:101CB0006F905F904F903F902F900895BC018CE102
:101CC0009FE00E94AF2508950F931F93DF93CF935A
:101CD000CDB7DEB769970FB6F894DEBF0FBECDBFA4
:101CE0008E010F5F1F4FB8014AE050E00E94072BA2
:101CF000C8010E945E0E69960FB6F894DEBF0FBE53
:101D0000CDBFCF91DF911F910F9108950F931F9336
:101D1000DF93CF9300D00F92CDB7DEB78E010F5F68
:101D20001F4FA80124E030E00E94800DBC01C801D3
:101D30000E94BA2AC8010E947D2A0F900F900F902E
:101D40000F90CF91DF911F910F9108952F923F92A5
:101D50004F925F926F927F928F929F92AF92BF92BB
:101D6000CF92DF92EF92FF920F931F93DF93CF9367
:101D7000CDB7DEB72E970FB6F894DEBF0FBECDBF3E
:101D80006C018B01CB0183969A8389837E01089431
:101D9000E11CF11CC70166EA72E00E94860E9C837A
:101DA0008B83C70166EA72E00E94860E9E838D8354
:101DB000C70166EA72E00E94860E98878F83025DF3
:101DC0001F4F1A830983C70168EA72E00E94860EDA
:101DD0002C01C70168EA72E00E94860E4C01C7011F
:101DE0006AEA72E00E94860E5C01C70168EA72E04E
:101DF0000E94860E1C01C60183969A838983C701BF
:101E000066EA72E00E94860E9C01C70166EA72E0F3
:101E10002D873E870E94860E9A878987C70166EACA
:101E200072E00E94860E9C878B87C6018E969A83ED
:101E30008983C70168EA72E00E94860E3C01C701EF
:101E400068EA72E00E94860E6C01C7016AEA72E0DD
:101E50000E94860E8C01C70168EA72E00E94860E1D
:101E6000A01AB10A84010C191D09A20146195709CB
:101E7000281A390A2D853E858B819C81821B930B04
:101E80006D817E8129853A85621B730BEF81F88510
:101E90002B853C85E21BF30B1E161F0624F03097A2
:101EA00061F0EC59FF4FA0E8B3E3EA9F9001EB9F8C
:101EB000300DFA9F300D112402C020E030E01616DC
:101EC00017062CF06115710569F0645F7F4FA0E083
:101ED000BDE86A9FF0016B9FF00D7A9FF00D112411
:101EE0002E0F3F1F181619061CF0009761F04E9632
:101EF000E0E8F1E58E9FB0018F9F700D9E9F700D01
:101F00001124260F371F1416150654F460E17EE0E5
:101F1000469FC001479F900D569F900D11240EC003
:101F20004115510569F0FA01789660E17EE0E69F7F
:101F3000C001E79F900DF69F900D1124280F391FC7
:101F40002114310459F060E17EE0269EC001279EF5
:101F5000900D369E900D1124280F391F1016110672
:101F600024F057FF0DC0045C1F4F4CE350E0049F6A
:101F7000C001059F900D149F900D1124280F391F4B
:101F80001A141B043CF0A114B10431F08CE390E06E
:101F9000A80EB91E2A0D3B1DC9012E960FB6F89446
:101FA000DEBF0FBECDBFCF91DF911F910F91FF908C
:101FB000EF90DF90CF90BF90AF909F908F907F90E9
:101FC0006F905F904F903F902F90089580912E0DCD
:101FD000882399F08DEA92E00E94700B80912E0D7B
:101FE00090E00E947C0B8CEB92E00E94700B809141
:101FF0002F0D90E00E947C0BFFCF08951F93CF938D
:10200000DF93FB0101900020E9F73197E61BF70B06
:10201000AF01EC30F10510F04BE050E010E017C0DC
:10202000DC01A20FB31FAC91AA23B1F0A032A1F042
:10203000AA3091F0CA2FD0E0DB01A20FB31FAC9100
:10204000BB27A7FDB095CA17DB0741F41F5F212FFF
:1020500030E02417350720F381E001C080E02E171F
:102060003F0708F480E0DF91CF911F9108951F93FF
:10207000CF93DF93C5E0D0E08AE061E00E94A82220
:102080008BE061E00E94A8228CE061E00E94A8221F
:102090008DE061E00E94A8228AE29DE060E00E945B
:1020A000E309882381F460E273E080E090E00E941D
:1020B000A221C130D10529F48FEB92E00E94700B70
:1020C000FFCF2197C9F68AE29DE00E945F0981E077
:1020D0008093330D10E086E39DE06AE27DE0412FBE
:1020E0000E940908882349F41F5F1530A1F782ED8B
:1020F00092E00E94700B0E94E60F85E59DE066E38A
:102100007DE00E946407882329F48AEE92E00E9411
:10211000700BFFCFDF91CF911F910895EF92FF9247
:102120000F931F93DF93CF93CDB7DEB763970FB6AF
:10213000F894DEBF0FBECDBFE8A8F9A81982CE0182
:102140004D960E94D3058E010F5F1F4F18C08091DE
:10215000680D8E32A1F0C80166E37DE048E65DE0DF
:102160000E94AE07882359F089818770823038F445
:1021700088E69DE0B7010E94FE0F882349F4CE0156
:102180004D9668E67DE00E94AE06181604F31FC067
:1021900088E89DE0B8010E9444028823C1F007E06E
:1021A00010E088E89DE00E94E10106C064E670E06E
:1021B00080E090E00E94A2218091920D8823B1F7E7
:1021C00080912E0D882319F00150104051F763962D
:1021D0000FB6F894DEBF0FBECDBFCF91DF911F9138
:1021E0000F91FF90EF900895CF93DF938DB79EB737
:1021F00045970FB6F8949EBF0FBE8DBFEDB7FEB7E3
:102200003196EF01A5E5BDE083E10D900992815083
:10221000E1F78091290890912A08948B838B0E9482
:102220008E108DB79EB745960FB6F8949EBF0FBE21
:102230008DBFDF91CF910895CF93DF93682FC9E9C8
:10224000DDE0CE0140E00E942D28CE0160EB7DE074
:102250000E94AF25DF91CF9108950F931F93DF93D5
:10226000CF93CDB7DEB762970FB6F894DEBF0FBE3F
:10227000CDBFA4ECBDE0FD0101900020E9F7E45DD5
:10228000FD408E179F0720F4BC016A0F7B1F05C01D
:102290001092AF0D1092AE0DBD01DB010D9000202C
:1022A000E9F7AD0141505040461B570B40315105F5
:1022B00010F040E150E08E010F5F1F4FC8010E94F7
:1022C000DE2A198A89E99DE06091AC0D41E00E9407
:1022D0002D2889E99DE0B8010E94AF2562960FB6CE
:1022E000F894DEBF0FBECDBFCF91DF911F910F914C
:1022F0000895EF92FF920F931F93CF93DF937C018A
:102300008B010E946E216093050F7093060F8093DE
:10231000070F9093080F89E99DE00E945B2889E9E7
:102320009DE00E941C2881E08093040FE701099042
:102330000020E9F72197CE19DF09C231D10510F04D
:10234000C2E1D0E080EB9DE0B701AE010E94DE2A41
:10235000C055D24F188280E090E00E941C11E80125
:1023600009900020E9F72197C01BD10B81E0CE3303
:10237000D80710F0CEE3D1E084EC9DE0B801AE01C7
:102380000E94DE2ACC53D24F188280E090E00E9457
:102390002D11DF91CF911F910F91FF90EF90089534
:1023A000CF93DF93C9E9DDE0CE0160E142E020E0B8
:1023B0000E946328CE010E942528DF91CF910895C5
:1023C0008091040F882369F189E99DE00E94182813
:1023D0008091AC0D9091AD0D01969093AD0D8093D1
:1023E000AC0D8091AE0D9091AF0D01969093AF0D15
:1023F0008093AE0D0E942D118091AC0D9091AD0D8A
:102400008031910540F089E99DE00E945B2810929F
:10241000AD0D1092AC0D8091AC0D9091AD0D0E9460
:102420001C1108955F926F927F928F929F92AF924C
:10243000BF92CF92DF92EF92FF920F931F93CF93B1
:10244000DF935C013A014B01522E1092D210109290
:10245000420F0E946E216B017C01C2E4DFE002C0EA
:102460008E01E801CE0182549F4021E08F3892070F
:1024700014F0198242C0C5010E94062318161906DD
:10248000E4F4C5010E943323FE0181938F01198278
:102490000E946E216B017C0188818A3011F08D30A1
:1024A00001F7FFE003341F0729F41092420F02E402
:1024B0001FE0D7CF8D30A9F61FC0552061F0809165
:1024C000040F882341F00E94E0116CEB72E080E081
:1024D00090E00E94A2210E946E216C197D098E0954
:1024E0009F09661677068806990608F0B9CF198203
:1024F00081E08093D21001C0E801C254DF40CE01D8
:10250000DF91CF911F910F91FF90EF90DF90CF90CF
:10251000BF90AF909F908F907F906F905F90089545
:102520000F931F93DF93CF93CDB7DEB763970FB6AB
:10253000F894DEBF0FBECDBF8C0181E598E09A8391
:10254000898380911E0F90911F0F9C838B838091B4
:10255000200F9091210F9E838D838091220F909167
:10256000230F98878F838091240F9091250F9A874E
:1025700089878091260F9091270F9C878B87809168
:10258000280F9091290F9E878D8780912A0F8F8722
:1025900080912B0F888B80912C0F898B80912D0F30
:1025A0008A8B80912E0F8B8BAB0160E070E0CE01A7
:1025B000019621E00E9412128091420F882391F02F
:1025C00082E49FE0B8010E94ED2A009771F06091CB
:1025D00001087091020882E49FE00E94ED2A0097B2
:1025E00039F403C020E030E005C021E030E002C053
:1025F00022E030E0C90163960FB6F894DEBF0FBE4B
:10260000CDBFCF91DF911F910F910895FF920F934E
:102610001F93DF93CF93CDB7DEB7E9970FB6F8944A
:10262000DEBF0FBECDBF9C01F62E8CE19FE0B9014D
:102630000E94932601E518E01A83098380911E0FFA
:1026400090911F0F9C838B838091200F9091210F7D
:102650009E838D838091220F9091230F98878F8383
:102660008091240F9091250F9A8789878091260F5A
:102670009091270F9C878B878091280F9091290F2D
:102680009E878D8780912A0F8F8780912B0F888B53
:1026900080912C0F898B80912D0F8A8B80912E0F2A
:1026A0008B8BCE01019648EC50E060E070E020E0BA
:1026B0000E941212FF2009F47CC01D8B0C8B8091AC
:1026C0001E0F90911F0F9F8B8E8B8091200F9091EA
:1026D000210F998F888F8091220F9091230F9B8FCC
:1026E0008A8F8091240F9091250F9D8F8C8F8091E0
:1026F000260F9091270F9F8F8E8F8091280F90919A
:10270000290F99A388A380912A0F8AA380912B0F68
:102710008BA380912C0F8CA380912D0F8DA3809182
:102720002E0F8EA3CE01449648EC50E060E070E09E
:1027300020E00E94121218A70FA380911E0F909103
:102740001F0F9AA789A78091200F9091210F9CA716
:102750008BA78091220F9091230F9EA78DA7809128
:10276000240F9091250F98AB8FA78091260F909101
:10277000270F9AAB89AB8091280F9091290F9CABC2
:102780008BAB80912A0F8DAB80912B0F8EAB8091FC
:102790002C0F8FAB80912D0F88AF80912E0F89AFBA
:1027A000CE01879648EC50E060E070E020E00E94A7
:1027B00012126CE271E080E090E00E94A221E996A2
:1027C0000FB6F894DEBF0FBECDBFCF91DF911F9142
:1027D0000F91FF9008958FEF92E061E00E94061341
:1027E00060E273E080E090E00E94A22110921D0D53
:1027F00008958F929F92AF92BF92CF92DF92EF9205
:10280000FF920F931F93DF93CF93CDB7DEB76397FC
:102810000FB6F894DEBF0FBECDBF5C0100E010E044
:1028200091E5892E98E0992E7E010894E11CF11C17
:1028300082E49FE0B5010E94ED2A6C019A828982B0
:1028400080911E0F90911F0F9C838B838091200F8E
:102850009091210F9E838D838091220F9091230F61
:1028600098878F838091240F9091250F9A8789876D
:102870008091260F9091270F9C878B878091280F3E
:102880009091290F9E878D8780912A0F8F87809145
:102890002B0F888B80912C0F898B80912D0F8A8B29
:1028A00080912E0F8B8BC7014CED55E060E070E0FE
:1028B00020E00E9412128091420F882319F40F5FCA
:1028C0001F4F02C000E010E0C114D10431F4023007
:1028D000110508F4ADCF80E001C081E063960FB62A
:1028E000F894DEBF0FBECDBFCF91DF911F910F9146
:1028F000FF90EF90DF90CF90BF90AF909F908F9020
:102900000895FF920F931F93DF93CF93CDB7DEB758
:10291000E9970FB6F894DEBF0FBECDBF8CE19FE004
:1029200064E073E00E94772501E518E01A830983CB
:1029300080911E0F90911F0F9C838B838091200F9D
:102940009091210F9E838D838091220F9091230F70
:1029500098878F838091240F9091250F9A8789877C
:102960008091260F9091270F9C878B878091280F4D
:102970009091290F9E878D8780912A0F8F87809154
:102980002B0F888B80912C0F898B80912D0F8A8B38
:1029900080912E0F8B8BCE01019644EC59E060E0C4
:1029A00070E020E00E94121288E093E00E94F91388
:1029B000F82E1D8B0C8B80911E0F90911F0F9F8BFB
:1029C0008E8B8091200F9091210F998F888F80910D
:1029D000220F9091230F9B8F8A8F8091240F9091CB
:1029E000250F9D8F8C8F8091260F9091270F9F8FA1
:1029F0008E8F8091280F9091290F99A388A38091A1
:102A00002A0F8AA380912B0F8BA380912C0F8CA36C
:102A100080912D0F8DA380912E0F8EA3CE01449611
:102A200048EC50E060E070E020E00E94121218A72D
:102A30000FA380911E0F90911F0F9AA789A78091D5
:102A4000200F9091210F9CA78BA78091220F90912E
:102A5000230F9EA78DA78091240F9091250F98ABEF
:102A60008FA78091260F9091270F9AAB89AB209169
:102A7000280F3091290F3CAB2BAB80912A0F8DABE7
:102A800080912B0F8EAB80912C0F8FAB80912D0FEF
:102A900088AF80912E0F89AFCE01879648EC50E029
:102AA00060E070E020E00E941212FF2019F081E047
:102AB00080931D0D8F2DE9960FB6F894DEBF0FBEE3
:102AC000CDBFCF91DF911F910F91FF9008950E948C
:102AD0008114882339F08CE093E061E00E940613B2
:102AE0000E94EB1308950F931F9300911D0D002377
:102AF00021F40E948114882329F182E193E060E0AF
:102B00000E94061360E971E080E090E00E94A2213B
:102B100089E193E00E94F913182F002311F40E9419
:102B2000EB136CED75E080E090E00E94A2210E9422
:102B30006E2160931E0D70931F0D8093200D909356
:102B4000210D01C010E0812F1F910F9108958CE19C
:102B50009FE040E855E260E070E00E9443248091ED
:102B60001D0D882399F40E948114882379F46CED5B
:102B700075E080E090E00E94A221F1CF8EE193E029
:102B800061E00E9406130E94EB13089585E293E032
:102B90000E945E0E8091090890910A0861E00E94EF
:102BA000061384E393E00E945E0E809105089091E5
:102BB000060861E00E94061385E493E00E945E0E21
:102BC000809103089091040861E00E94061384E557
:102BD00093E00E945E0E809107089091080861E0E2
:102BE0000E94061383E693E00E945E0E80910B081C
:102BF00090910C0861E00E94061382E793E00E9426
:102C00005E0E80910D0890910E0861E00E940613FF
:102C100083E893E00E945E0E80910F089091100867
:102C200061E00E94061382E993E00E945E0E8091AB
:102C300011089091120861E00E94061384EA93E063
:102C40000E945E0E809113089091140861E00E942A
:102C5000061381EB93E00E945E0E8091150890911F
:102C6000160861E00E94061381EC93E00E945E0E5C
:102C70008091190890911A0861E00E9406138DEC6A
:102C800093E00E945E0E809117089091180861E011
:102C90000E9406138BED93E00E945E0E80911B084C
:102CA00090911C0861E00E9406138BEE93E00E9455
:102CB0005E0E80911D0890911E0861E00E9406132F
:102CC0008BEF93E00E945E0E80911F089091200888
:102CD00061E00E9406138CE094E00E945E0E8091F9
:102CE00021089091220861E00E9406138DE194E092
:102CF0000E945E0E809123089091240861E00E945A
:102D000006138CE294E00E945E0E8091250890915B
:102D1000260861E00E9406138BE394E00E945E0E99
:102D2000809127089091280861E00E9406138BE4A7
:102D300094E061E00E94061380E594E061E00E9467
:102D4000061368E775E080E090E00E94A2210E94EF
:102D50007315882309F017CF11CF2F923F924F920E
:102D60005F926F927F928F929F92AF92BF92CF921B
:102D7000DF92EF92FF920F931F93DF93CF93CDB724
:102D8000DEB7CB57D0400FB6F894DEBF0FBECDBF35
:102D9000EA969FAF8EAFEA978B012DB73EB7EC96C0
:102DA0003FAF2EAFEC9789E09FE00E9455238DB78F
:102DB0009EB74E970FB6F8949EBF0FBE8DBF01967B
:102DC000B82EA92E2DB73EB7275030400FB6F89435
:102DD0003EBF0FBE2DBF89E09FE06FE574E00E940B
:102DE000AF2589E09FE062E270E040E050E00E94A1
:102DF000722689E09FE0B8010E94AF2589E09FE03C
:102E000062E270E040E050E00E949E26EE24FF2443
:102E100000E010E051E0852E912C41E5242E48E0A1
:102E2000342E32E4632E3FE0732E6E010894C11CF1
:102E3000D11C25E1422E512C4C0E5D1E3CA22BA232
:102E400080910B0F90910C0F9EA38DA380910D0F7D
:102E500090910E0F98A78FA380910F0F9091100F54
:102E60009AA789A78091110F9091120F9CA78BA709
:102E70008091130F9091140F9EA78DA78091150F2D
:102E80009091160F98AB8FA78091170F89AB809107
:102E9000180F8AAB8091190F8BAB80911A0F8CABF6
:102EA00080911B0F8DABCE0183964CED55E060E019
:102EB00070E020E00E94121288E694E062E47FE075
:102EC00042E050E00E94D02A009709F4D8C0EA9668
:102ED0008EAD9FADEA97881599050CF4D0C0F3012B
:102EE00001900020E9F73197E254FF40E230F1050C
:102EF00008F4BCC082E49FE06BE674E00E94ED2A17
:102F0000009709F4B8C07A826982C60168EA72E063
:102F10004B2D5A2D2EE130E00E94800DC60162E754
:102F200074E04B2D5A2D2EE130E00E94800DBC0143
:102F3000CE0103960E94BA2AC60162E774E04B2DC7
:102F40005A2D2EE130E00E94800DC60162E774E048
:102F50004B2D5A2D2EE130E00E94800DBC01CE0198
:102F6000845A9F4F0E94BA2AC60162E774E04B2D33
:102F70005A2D2EE130E00E94800DC60162E774E018
:102F80004B2D5A2D2EE130E00E94800DBC01CE0168
:102F90000A960E94BA2AC60162E774E04B2D5A2DA8
:102FA0002EE130E00E94800DBC01C2010E94BA2ACD
:102FB0003FAA2EAA80910B0F90910C0F99AF88AF6A
:102FC00080910D0F90910E0F9BAF8AAF80910F0FE4
:102FD0009091100F9DAF8CAF8091110F9091120FB7
:102FE0009FAF8EAF8091130F9091140F22969FAFD9
:102FF0008EAF22978091150F9091160F24969FAF58
:103000008EAF24978091170F25968FAF25978091CB
:10301000180F26968FAF26978091190F27968FAF9E
:10302000279780911A0F28968FAF289780911B0FB2
:1030300029968FAF2997CE01C69644E650E060E00E
:1030400070E020E00E941212C701BE016D5F7F4F49
:10305000AE01445A5F4F9E01265F3F4F82017301CC
:103060000E94D60D7C0100E010E005C00130110582
:1030700031F001E010E00894811C911CDFCEFE01CC
:10308000E75BFF4F81E598E09183808380910B0F90
:1030900090910C0F9383828380910D0F90910E0F6E
:1030A0009583848380910F0F9091100F978386836F
:1030B0008091110F9091120F918780878091130F4B
:1030C0009091140F938782878091150F9091160F1E
:1030D000958784878091170F86878091180F87873F
:1030E0008091190F808B80911A0F818B80911B0F1B
:1030F000828BCF014CE251E060E070E020E00E9462
:103100001212C701EC962EAD3FADEC970FB6F894B6
:103110003EBF0FBE2DBFC558DF4F0FB6F894DEBFC0
:103120000FBECDBFCF91DF911F910F91FF90EF9018
:10313000DF90CF90BF90AF909F908F907F906F90D7
:103140005F904F903F902F900895DF93CF93CDB72E
:10315000DEB763970FB6F894DEBF0FBECDBF89E030
:103160009FE060E874E00E94932660ED77E080E0E5
:1031700090E00E94A22181E598E09A838983809162
:103180000B0F90910C0F9C838B8380910D0F90916E
:103190000E0F9E838D8380910F0F9091100F988753
:1031A0008F838091110F9091120F9A878987809158
:1031B000130F9091140F9C878B878091150F90911E
:1031C000160F9E878D878091170F8F878091180F1C
:1031D000888B8091190F898B80911A0F8A8B80912F
:1031E0001B0F8B8BCE01019644EF51E060E070E045
:1031F00020E00E94121263960FB6F894DEBF0FBE55
:10320000CDBFCF91DF910895EF92FF920F931F935F
:10321000DF93CF93CDB7DEB763970FB6F894DEBFD9
:103220000FBECDBF7C0109E01FE0C8016CE874E06F
:103230000E94AF25C801B7010E94AF25C80165E90A
:1032400074E00E94932660ED77E080E090E00E94B9
:10325000A22181E598E09A83898380910B0F909158
:103260000C0F9C838B8380910D0F90910E0F9E838A
:103270008D8380910F0F9091100F98878F8380918D
:10328000110F9091120F9A8789878091130F909157
:10329000140F9C878B878091150F9091160F9E8736
:1032A0008D878091170F8F878091180F888B809161
:1032B000190F898B80911A0F8A8B80911B0F8B8B32
:1032C000CE01019644EF51E060E070E020E00E9402
:1032D000121263960FB6F894DEBF0FBECDBFCF912A
:1032E000DF911F910F91FF90EF9008958F929F9221
:1032F000AF92BF92CF92DF92EF92FF920F931F9304
:10330000CF93DF938C017B01A42E84E190E068E9E8
:1033100074E00E94AD16EC01BB2477E0C72ED12CDF
:10332000C00ED11E30C0CE01B8010E94A60E8E156F
:103330009F05B4F4BE01695F7F4FC6010E94B12AA8
:103340000097E1F4CE01B8010E94B12A0097B1F0D4
:10335000AA20E1F0CE010E940419BB24B3940EC050
:10336000E816F9065CF4AA2049F0CE01B8010E94E3
:10337000B12A009719F0CE010E940419C453DE4F00
:103380000990D881C02D209771F602C0BB24B39458
:103390008B2DDF91CF911F910F91FF90EF90DF90D8
:1033A000CF90BF90AF909F908F900895CF92DF9273
:1033B000EF92FF920F931F93DF93CF93CDB7DEB7BA
:1033C00063970FB6F894DEBF0FBECDBF7C016B01D3
:1033D00009E01FE0C80161EA74E00E94AF25C8015E
:1033E00062E270E040E050E00E947226C801B7013E
:1033F0000E94AF25C80162E270E040E050E00E9408
:103400009E2668EE73E080E090E00E94A221C80151
:10341000B6010E94AF2564EF71E080E090E00E9469
:10342000A221C8016AE170E040E050E00E947226EB
:1034300081E598E09A83898380910B0F90910C0F1E
:103440009C838B8380910D0F90910E0F9E838D83B3
:1034500080910F0F9091100F98878F838091110F9B
:103460009091120F9A8789878091130F9091140F72
:103470009C878B878091150F9091160F9E878D8763
:103480008091170F8F878091180F888B8091190F6B
:10349000898B80911A0F8A8B80911B0F8B8BCE01A9
:1034A00001964CE251E060E070E020E00E941212D0
:1034B0000E94F41063960FB6F894DEBF0FBECDBF26
:1034C000CF91DF911F910F91FF90EF90DF90CF9000
:1034D00008952F923F924F925F926F927F928F92B8
:1034E0009F92AF92BF92CF92DF92EF92FF920F9393
:1034F0001F93DF93CF93CDB7DEB7C950D3400FB63C
:10350000F894DEBF0FBECDBFCDB6DEB6CA5FDC4FCE
:10351000D982C882C650D3402DB73EB72A51304019
:103520000FB6F8943EBF0FBE2DBF2F5F3F4F822EC8
:10353000732EEDB7FEB7EE58F1400FB6F894FEBF0C
:103540000FBEEDBFEDB6FEB60894E11CF11C823053
:1035500091050CF418C1CDB6DEB6C85FDC4FC88249
:10356000C850D340C75FDC4FD882C950D3408DB715
:103570009EB78E5891400FB6F8949EBF0FBE8DBF78
:103580000196D82EC92E9924662444245524F6E7A2
:10359000AF2EF1E0BF2EAC0EBD1E8E010F5F1F4F90
:1035A000E1E52E2EE8E03E2EC50162E47FE00E94B8
:1035B000BA2ABA82A982C5016AEA74E00E94ED2A99
:1035C0000097F1F0C80160EB74E04D2D5C2D2EE802
:1035D00031E00E94800DC80162EB74E04D2D5C2D3E
:1035E0002AE130E00E94800DBC01882D972D0E94B9
:1035F000BA2A89819A8102979A838983662463947F
:10360000C50164EB74E00E94ED2A009791F1C801B6
:1036100062EB74E04D2D5C2D2EE831E00E94800DB0
:10362000C80160EB74E04D2D5C2D2EE831E00E9466
:10363000800DC8016AEB74E04D2D5C2D2EE831E061
:103640000E94800DBC01C7010E94BA2AE982FA8259
:10365000F7018081882359F0609101087091020878
:10366000C8010E941C0DBC01C7010E94BA2A9924FE
:1036700093943E822D8280911E0F90911F0F988708
:103680008F838091200F9091210F9A878987809155
:10369000220F9091230F9C878B878091240F90910C
:1036A000250F9E878D878091260F9091270F988BED
:1036B0008F878091280F9091290F9A8B898B809109
:1036C0002A0F8B8B80912B0F8C8B80912C0F8D8BE5
:1036D00080912D0F8E8B80912E0F8F8BCE010596B2
:1036E0004CED55E060E070E020E00E94121208947A
:1036F000411C511CFAE04F16510439F0662009F4C0
:1037000053CF992009F450CF04C0662041F199208D
:1037100031F1A82DB72DFD0101900020E9F7319777
:10372000EA1BFB0BE330F105D0F0F701019000201C
:10373000E9F73197EE19FF09E430F10580F0EB82EB
:10374000FC82CE0103966DEB74E044EA52E00E94E5
:10375000ED0BBC01C7010E94BA2A20E001C021E0A4
:10376000C85FDC4F4881C850D340C75FDC4F388109
:10377000C950D340842F932F0FB6F8949EBF0FBE2D
:103780008DBF2223D9F18E01085E1F4FC80161EC65
:1037900074E00E94BA2A6091150870911608C80159
:1037A0000E94A62AC80164E975E00E94A62A6091D9
:1037B000170870911808C8010E94A62AC8016BE971
:1037C00075E00E94A62A84EB95E00E945E0EF80147
:1037D00001900020E9F7CF010197801B910B0E9417
:1037E000640E86E096E00E945E0EC80161E00E94D1
:1037F00006138EE196E00E945E0E3FC08E01085EC9
:103800001F4FC80160E276E00E94BA2AC801682D05
:10381000772D0E94A62AC8016AE376E00E94A62AB4
:10382000C801B7010E94A62AC80165E476E00E949B
:10383000A62A84E596E00E945E0EF8010190002021
:10384000E9F7CF010197801B910B0E94640E86E07F
:1038500096E00E945E0EC80161E00E9406138EE1B0
:1038600096E00E945E0EC70160E378E00E94A62AFF
:10387000882D972DB7010E94D6198CE19FE00E94F8
:1038800055230E946715CA5FDC4FC880D980C65097
:10389000D3400FB6F894DEBE0FBECDBEC75FDC4F7F
:1038A0000FB6F894DEBF0FBECDBFCF91DF911F9151
:1038B0000F91FF90EF90DF90CF90BF90AF909F90CF
:1038C0008F907F906F905F904F903F902F900895D2
:1038D000DF93CF93CDB7DEB763970FB6F894DEBF13
:1038E0000FBECDBF882329F089E09FE06DE976E027
:1038F00004C089E09FE067EA76E00E94932681E5B4
:1039000098E09A83898380910B0F90910C0F9C8390
:103910008B8380910D0F90910E0F9E838D838091EC
:103920000F0F9091100F98878F838091110F9091B6
:10393000120F9A8789878091130F9091140F9C879B
:103940008B878091150F9091160F9E878D878091A0
:10395000170F8F878091180F888B8091190F898B93
:1039600080911A0F8A8B80911B0F8B8BCE01019651
:103970004CE251E060E070E020E00E941212639699
:103980000FB6F894DEBF0FBECDBFCF91DF91089583
:103990000F931F93DF93CF93CDB7DEB763970FB627
:1039A000F894DEBF0FBECDBF60E273E080E090E030
:1039B0000E94A22109E01FE0C80161EB76E00E94AD
:1039C000AF25C80162E270E040E050E00E9472263C
:1039D000C80160E478E00E94AF25C80162E270E0AF
:1039E00040E050E00E949E2681E598E09A8389831A
:1039F00080910B0F90910C0F9C838B8380910D0F06
:103A000090910E0F9E838D8380910F0F9091100FD8
:103A100098878F838091110F9091120F9A878987D1
:103A20008091130F9091140F9C878B878091150FB5
:103A30009091160F9E878D878091170F8F878091A9
:103A4000180F888B8091190F898B80911A0F8A8BA0
:103A500080911B0F8B8BCE0101964CE251E060E010
:103A600070E020E00E94121263960FB6F894DEBF59
:103A70000FBECDBFCF91DF911F910F910895CF93CE
:103A8000DF9389E09FE040E855E260E070E00E944B
:103A9000432480912B0861E00E94A82280912B088A
:103AA00061E00E94CC2260ED77E080E090E00E942F
:103AB000A22180912B0860E00E94CC22C4E1D0E0DA
:103AC00068EE73E080E090E00E94A2212197C1F7A8
:103AD00081E00E94681C0E94C81C0E94A518DF910A
:103AE000CF9108950E94590B0E943F1D80912D088F
:103AF00061E00E94A8220E94A7150E9437100E9430
:103B0000F4100E94D0110895EF92FF920F931F932B
:103B10000E948A0B80912D0861E00E94CC2284E1F2
:103B200090E068EC76E00E94AD169093D4108093FC
:103B3000D310009709F43FC00E94F4108DE79CE079
:103B4000FC0101900020E9F73197E81BF90BE23006
:103B5000F10520F463ED76E00E94BA2A8091D3103B
:103B60009091D410BC01645C7F4F07960E9479113C
:103B70001CC060E17EE041E00E947619882349F490
:103B80008091D3109091D41007966DE77CE00E944D
:103B9000D619E091D310F091D410E453FE4F8081F8
:103BA00091819093D4108093D3108091D3109091F1
:103BB000D4100097F1F68091040F8823E1F00E9461
:103BC0006E212091050F3091060F4091070F509103
:103BD000080F621B730B840B950B613B2DEA720778
:103BE00020E0820720E0920730F089E99DE00E9402
:103BF00025281092040F80912D0860E00E94CC22AD
:103C00000E946E2120911E0D30911F0D4091200DBC
:103C10005091210D621B730B840B950B613427E7C8
:103C200072072BE1820720E0920778F00E94671567
:103C300008C00E94A71564EF71E080E090E00E9448
:103C4000A2210E9473158823A1F38CE19FE00E94BA
:103C500055230E948A0B0E948A0B80912D0861E0F7
:103C60000E94CC220E946E216093260D7093270D36
:103C70008093280D9093290D6093220D7093230D4E
:103C80008093240D9093250D18C0B901605E704497
:103C90006E197F0986E797E00E94901218161906A0
:103CA00014F40E94691A0E946E216093260D70938D
:103CB000270D8093280D9093290DE090260DF0900C
:103CC000270D0091280D1091290D2091220D309182
:103CD000230D4091240D5091250DD801C7018C5919
:103CE0009F4FAF4FBF4F821B930BA40BB50B80327E
:103CF0006FEB960760E0A60760E0B60730F264E677
:103D000070E080E090E00E94A2210E94E01164E651
:103D100070E080E090E00E94A2210E94E01164E641
:103D200070E080E090E00E94A2210E94E01180916A
:103D30002D0860E00E94CC221F910F91FF90EF9020
:103D40000895CF92EF920F9310922E0D1092300D96
:103D50001092330D1092350D1092480D1092550DA2
:103D600088E89DE00E943F0189E99DE060E24EE124
:103D70002CE10AE1B8E1EB2EA6E1CA2E0E94192936
:103D800081E598E090930A0F8093090F209100132A
:103D90003091011330930C0F20930B0F20910213DD
:103DA0003091031330930E0F20930D0F20910413C5
:103DB000309105133093100F20930F0F20910613AD
:103DC000309107133093120F2093110F2091081395
:103DD000309109133093140F2093130F20910A137D
:103DE00030910B133093160F2093150F20910C1365
:103DF0002093170F20910D132093180F20910E136D
:103E00002093190F20910F1320931A0F2091101354
:103E100020931B0F90931D0F80931C0F209126134E
:103E20003091271330931F0F20931E0F20912813DA
:103E3000309129133093210F2093200F20912A13C2
:103E400030912B133093230F2093220F20912C13AA
:103E500030912D133093250F2093240F20912E1392
:103E600030912F133093270F2093260F209130137A
:103E7000309131133093290F2093280F2091321362
:103E800020932A0F2091331320932B0F209134136A
:103E900020932C0F2091351320932D0F2091361352
:103EA00020932E0F9093300F80932F0F8091131338
:103EB000909114139093320F8093310F80911513CA
:103EC000909116139093340F8093330F80911713B2
:103ED000909118139093360F8093350F809119139A
:103EE00090911A139093380F8093370F80911B1382
:103EF00090911C1390933A0F8093390F80911D136A
:103F000090911E1390933C0F80933B0F80911F1351
:103F100080933D0F8091201380933E0F8091211359
:103F200080933F0F809122138093400F8091231341
:103F30008093410F0F91EF90CF9008951F920F92B1
:103F40000FB60F920BB60F9211242F933F934F93FE
:103F50005F936F937F938F939F93AF93BF93EF93F1
:103F6000FF938091D9109091DA10009729F0E09199
:103F7000D910F091DA101995FF91EF91BF91AF919F
:103F80009F918F917F916F915F914F913F912F9171
:103F90000F900BBE0F900FBE0F901F9018951F92A1
:103FA0000F920FB60F920BB60F9211242F933F93DF
:103FB0004F935F936F937F938F939F93AF93BF9331
:103FC000EF93FF938091DB109091DC10009729F024
:103FD000E091DB10F091DC101995FF91EF91BF910A
:103FE000AF919F918F917F916F915F914F913F9191
:103FF0002F910F900BBE0F900FBE0F901F90189532
:104000001F920F920FB60F920BB60F9211242F939F
:104010003F934F935F936F937F938F939F93AF9350
:10402000BF93EF93FF938091DD109091DE10009786
:1040300029F0E091DD10F091DE101995FF91EF91DC
:10404000BF91AF919F918F917F916F915F914F91B0
:104050003F912F910F900BBE0F900FBE0F901F90AE
:1040600018951F920F920FB60F920BB60F92112454
:104070002F933F934F935F936F937F938F939F9370
:10408000AF93BF93EF93FF938091DF109091E01077
:10409000009729F0E091DF10F091E0101995FF9161
:1040A000EF91BF91AF919F918F917F916F915F91B0
:1040B0004F913F912F910F900BBE0F900FBE0F901D
:1040C0001F9018951F920F920FB60F920BB60F927A
:1040D00011242F933F934F935F936F937F938F930D
:1040E0009F93AF93BF93EF93FF938091D5109091DF
:1040F000D610009729F0E091D510F091D6101995BF
:10410000FF91EF91BF91AF919F918F917F916F91AF
:104110005F914F913F912F910F900BBE0F900FBE6B
:104120000F901F9018951F920F920FB60F920BB61B
:104130000F9211242F933F934F935F936F937F932D
:104140008F939F93AF93BF93EF93FF938091D7107B
:104150009091D810009729F0E091D710F091D810E5
:104160001995FF91EF91BF91AF919F918F917F91A1
:104170006F915F914F913F912F910F900BBE0F90D8
:104180000FBE0F901F9018951F920F920FB60F92AF
:104190000BB60F9211242F933F934F935F936F931E
:1041A0007F938F939F93AF93BF93EF93FF938091F0
:1041B000E1109091E210009729F0E091E110F09168
:1041C000E2101995FF91EF91BF91AF919F918F915F
:1041D0007F916F915F914F913F912F910F900BBE07
:1041E0000F900FBE0F901F9018951F920F920FB651
:1041F0000F920BB60F9211242F933F934F935F931F
:104200006F937F938F939F93AF93BF93EF93FF939E
:104210008091E3109091E410009729F0E091E31071
:10422000F091E4101995FF91EF91BF91AF919F919B
:104230008F917F916F915F914F913F912F910F904F
:104240000BBE0F900FBE0F901F9018951F920F92EC
:104250000FB60F9211242F933F938F939F93AF9399
:10426000BF938091E9109091EA10A091EB10B0916A
:10427000EC103091ED100196A11DB11D232F2D5F83
:104280002D3720F02D570196A11DB11D2093ED1063
:104290008093E9109093EA10A093EB10B093EC1088
:1042A0008091E5109091E610A091E710B091E81090
:1042B0000196A11DB11D8093E5109093E610A09387
:1042C000E710B093E810BF91AF919F918F913F910C
:1042D0002F910F900FBE0F901F9018958FB7F894E5
:1042E0002091E9103091EA104091EB105091EC10C0
:1042F0008FBFB901CA0108959FB7F8942091E510C6
:104300003091E6104091E7105091E81086B5A89BD7
:1043100006C08F3F21F02F5F3F4F4F4F5F4F9FBF32
:10432000542F432F322F2227280F311D411D511D9D
:1043300082E0220F331F441F551F8A95D1F7B90120
:10434000CA010895EF92FF920F931F93CF93DF93CB
:104350007B018C010E947C21EB010FC00E947C211B
:104360006C1B7D0B83E0683E780738F00894E10809
:10437000F10801091109C851DC4FE114F1040105EC
:10438000110561F7DF91CF911F910F91FF90EF9091
:104390000895019739F0880F991F880F991F029788
:1043A0000197F1F70895789484B5826084BD84B54F
:1043B000816084BD85B5826085BD85B5816085BD20
:1043C000EEE6F0E0808181608083E1E8F0E0108239
:1043D000808182608083808181608083E0E8F0E07A
:1043E000808181608083E1EBF0E080818460808364
:1043F000E0EBF0E0808181608083E1E9F0E08081A2
:1044000082608083808181608083E0E9F0E0808148
:1044100081608083E1EAF0E0808182608083808136
:1044200081608083E0EAF0E0808181608083E1E266
:10443000F1E0808182608083808181608083E0E21E
:10444000F1E0808181608083EAE7F0E08081846030
:10445000808380818260808380818160808380818D
:10446000806880831092C1000895893009F448C0A3
:104470008A30A0F4843049F1853040F4823071F103
:104480008330F8F4813009F062C025C0873071F1C3
:10449000883090F5863009F05AC024C08D3009F478
:1044A00041C08E3028F48B30A9F18C30B8F52CC087
:1044B0008F3009F441C08F30D8F1803109F047C006
:1044C00041C0809180008F7703C0809180008F7DF4
:1044D00080938000089584B58F7702C084B58F7D66
:1044E00084BD08958091B0008F7703C08091B000A3
:1044F0008F7D8093B0000895809190008F7707C0E2
:10450000809190008F7D03C080919000877F809381
:10451000900008958091A0008F7707C08091A0003F
:104520008F7D03C08091A000877F8093A0000895B5
:10453000809120018F7703C0809120018F7D80932F
:104540002001089580912001877F809320010895A4
:1045500090E0FC01E858FE4F2491FC01EE5CFE4F18
:10456000E491EE23C1F0F0E0EE0FFF1FEC51FF4F9E
:1045700085919491DC01662341F49FB7F8948C9166
:10458000209582238C939FBF08959FB7F8948C91B8
:10459000822B8C939FBF08950F931F93DF93CF932C
:1045A0000F92CDB7DEB7282F30E0F901E254FE4F6D
:1045B0008491F901E858FE4F14912E5C3E4FF901A9
:1045C00004910023E9F0882321F069830E943522B9
:1045D0006981E02FF0E0EE0FFF1FE250FF4F859161
:1045E0009491DC01662331F49FB7F8948C91109577
:1045F000812304C09FB7F8948C91812B8C939FBF2B
:104600000F90CF91DF911F910F910895FC0182814E
:104610009381FC01E058FF4F208131818E579F4FDD
:10462000FC0180819181281B390B2F773070C901E3
:104630000895FC0182819381FC01EE57FF4F208198
:104640003181FC01E058FF4F4081518142175307EF
:1046500031F0820F931FFC01208130E002C02FEF68
:104660003FEFC9010895DC0112962D913C911397FB
:10467000F901EE57FF4F80819181D901A058BF4FBA
:104680004D915C9111974817590759F0280F391F20
:10469000D9012C9101968F7790709183808330E0BF
:1046A00002C02FEF3FEFC9010895DC0112968D91F2
:1046B0009C911397FC01E058FF4F8E579F4FDC01F0
:1046C0008D919C911197918380830895FC01A08521
:1046D000B18521898C9190E0022E02C09595879535
:1046E0000A94E2F780FFF6CF0484F585E02D60831D
:1046F0000895FB01E058FF4F408151819A012F5FDF
:104700003F4F2F773070DB01AE57BF4F0D90BC91FC
:10471000A02D2A173B0731F0640F751FDB018C9326
:104720003183208308951F920F920FB60F920BB61C
:104730000F9211242F933F934F935F936F937F9327
:104740008F939F93AF93BF93EF93FF938091C60096
:104750006EEE70E10E947923FF91EF91BF91AF91CE
:104760009F918F917F916F915F914F913F912F9189
:104770000F900BBE0F900FBE0F901F9018951F92B9
:104780000F920FB60F920BB60F9211242F933F93F7
:104790004F935F936F937F938F939F93AF93BF9349
:1047A000EF93FF938091CE0062E771E10E9479233D
:1047B000FF91EF91BF91AF919F918F917F916F91F9
:1047C0005F914F913F912F910F900BBE0F900FBEB5
:1047D0000F901F9018951F920F920FB60F920BB665
:1047E0000F9211242F933F934F935F936F937F9377
:1047F0008F939F93AF93BF93EF93FF938091D600D6
:1048000066EF71E10E947923FF91EF91BF91AF9123
:104810009F918F917F916F915F914F913F912F91D8
:104820000F900BBE0F900FBE0F901F9018951F9208
:104830000F920FB60F920BB60F9211242F933F9346
:104840004F935F936F937F938F939F93AF93BF9398
:10485000EF93FF93809136016AE772E10E9479231A
:10486000FF91EF91BF91AF919F918F917F916F9148
:104870005F914F913F912F910F900BBE0F900FBE04
:104880000F901F901895CF93DF93EC019A01AB0125
:10489000E885F985203081EE380780E0480780E020
:1048A000580709F449C081E090E00A8802C0880FE7
:1048B000991F0A94E2F7808360E079E08DE390E04D
:1048C0000E94982B2150304040405040CA01B9010D
:1048D00022E030E040E050E00E94982BEC81FD8126
:1048E0003083EE81FF812083EA85FB85408181E072
:1048F00090E09C010E8402C0220F331F0A94E2F75D
:10490000422B4083EA85FB8540819C010F8402C0D5
:10491000220F331F0A94E2F7422B4083EA85FB857E
:104920002081088802C0880F991F0A94E2F7282B7B
:104930002083DF91CF910895108220E130E0CECF27
:1049400081E598E09093FF128093FE122EEE30E105
:10495000309301132093001325EC30E030930313C0
:104960002093021324EC30E03093051320930413BA
:1049700020EC30E0309307132093061321EC30E055
:10498000309309132093081326EC30E030930B1377
:1049900020930A13E4E0E0930C1373E070930D137B
:1049A00067E060930E1355E050930F1341E040937E
:1049B0001013909312138093111322E731E1309377
:1049C0001413209313132DEC30E03093161320931F
:1049D00015132CEC30E0309318132093171328ECA8
:1049E00030E030931A132093191329EC30E0309300
:1049F0001C1320931B132EEC30E030931E132093D6
:104A00001D13E0931F137093201360932113509391
:104A1000221340932313909325138093241326EF9E
:104A200031E1309327132093261325ED30E03093A6
:104A300029132093281324ED30E030932B13209377
:104A40002A1320ED30E030932D1320932C1321ED09
:104A500030E030932F1320932E1326ED30E0309367
:104A6000311320933013E093321370933313609318
:104A70003413509335134093361390933813809327
:104A800037138AE792E190933A138093391385E3C1
:104A900091E090933C1380933B1384E391E09093D7
:104AA0003E1380933D1380E391E0909340138093F5
:104AB0003F1381E391E0909342138093411386E387
:104AC00091E09093441380934313E09345137093C4
:104AD0004613609347135093481340934913089526
:104AE0000E94D3210E94721D0E94841DFDCF0F934E
:104AF0001F93CF93DF93EC01062F172F07C0E88198
:104B0000F9810190F081E02DCE011995F8016191B4
:104B10008F016623A1F7DF91CF911F910F91089527
:104B2000EF92FF920F931F93CF93DF937C01EB01E2
:104B30008A010BC06991D701ED91FC910190F08140
:104B4000E02DC7011995015010400115110591F78D
:104B5000DF91CF911F910F91FF90EF900895DC01AD
:104B6000ED91FC910280F381E02D199508956F92EB
:104B70007F928F929F92AF92BF92CF92DF92EF92ED
:104B8000FF920F931F93DF93CF93CDB7DEB7A0971C
:104B90000FB6F894DEBF0FBECDBF5C01CB01BA01EA
:104BA000611571058105910551F4C50140E350E09F
:104BB00060E070E020E030E00E943C2648C06E01DA
:104BC0000894C11CD11CEE24FF248701622E772497
:104BD00088249924A40193010E94762BF601619305
:104BE0006F010894E11CF11C011D111DB901CA01DE
:104BF000611571058105910569F7D801C701019714
:104C0000A109B1096E010894C11CD11CC80ED91E9E
:104C100019C0F60140814A3010F4405D01C0495C82
:104C2000552747FD5095652F752FC50120E030E0D1
:104C30000E943C260894E108F10801091109089432
:104C4000C108D108E114F1040105110511F7A0967E
:104C50000FB6F894DEBF0FBECDBFCF91DF911F918D
:104C60000F91FF90EF90DF90CF90BF90AF909F900B
:104C70008F907F906F900895EF92FF920F931F9304
:104C8000CF93DF93EC017A018B012115310541F4BB
:104C9000E881F9810190F081E02D642F19951BC006
:104CA0002A303105B1F477FF10C04DE250E060E0EA
:104CB00070E020E030E00E943C2610950095F094D2
:104CC000E094E11CF11C011D111DCE01B801A701EA
:104CD0002AE00E94B725DF91CF911F910F91FF909D
:104CE000EF9008959A01FB01AF01662757FD60958B
:104CF000762F0E943C260895CF93DF93EC014DE080
:104D000050E060E070E020E030E00E943C26CE0100
:104D10004AE050E060E070E020E030E00E943C2695
:104D2000DF91CF910895CF93DF93EC010E94AF25DF
:104D3000CE010E947C26DF91CF910895CF93DF931F
:104D4000EC019A01CB01AC01662757FD6095762FE7
:104D5000CE010E943C26CE010E947C26DF91CF919D
:104D600008958230B9F0833028F4882351F08130DF
:104D700051F50AC0843011F18430E8F0853019F51E
:104D800020C010926E00089580916F008D7F8093F7
:104D90006F000895809170008D7F8093700081E096
:104DA0008093B0008091B100887F84608093B100CF
:104DB0001092B3000895109271000895109272003D
:104DC00008951092730008951F93182F80912F0853
:104DD000811739F4E4E0F2E084919FEF90932F087B
:104DE00001C08FEF0E94B126812F60E00E94CC228B
:104DF0001F9108951F920F920FB60F920BB60F924C
:104E000011242F933F934F935F936F937F938F93CF
:104E10009F93AF93BF93EF93FF9380914A13909129
:104E20004B13A0914C13B0914D130097A105B10500
:104E300051F1E0914E13F0914F13808190915013F6
:104E40008927808380914A1390914B13A0914C1332
:104E5000B0914D13181619061A061B06C4F480915A
:104E60004A1390914B13A0914C13B0914D1301979D
:104E7000A109B10980934A1390934B13A0934C134B
:104E8000B0934D1304C080912F080E94E426FF9137
:104E9000EF91BF91AF919F918F917F916F915F91B2
:104EA0004F913F912F910F900BBE0F900FBE0F901F
:104EB0001F901895CF93DF93EC018C8160E00E94E6
:104EC000CC2281E090E00E94C9218C8161E00E94A7
:104ED000CC2281E090E00E94C9218C8160E00E9498
:104EE000CC2284E690E00E94C921DF91CF91089501
:104EF000AF92BF92CF92DF92EF92FF920F931F93E8
:104F0000CF93DF937C018C010B5F1F4FC0E0D0E09B
:104F1000A62EBB246801F80181918F0161E00E94F7
:104F2000A822B5010C2E02C0759567950A94E2F788
:104F30006170F60180810E94CC222196C430D10597
:104F400049F7C7010E945A27DF91CF911F910F9116
:104F5000FF90EF90DF90CF90BF90AF900895AF9209
:104F6000BF92CF92DF92EF92FF920F931F93CF9356
:104F7000DF937C018C010B5F1F4FC0E0D0E0A62EB9
:104F8000BB246801F80181918F0161E00E94A82291
:104F9000B5010C2E02C0759567950A94E2F7617011
:104FA000F60180810E94CC222196C830D10549F7B4
:104FB000C7010E945A27DF91CF911F910F91FF9057
:104FC000EF90DF90CF90BF90AF9008951F93CF9355
:104FD000DF93EC01162F8A81642F0E94CC228B81F3
:104FE0008F3F19F060E00E94CC228D8584FF05C0C0
:104FF000CE01612F0E94AF270FC0212F30E084E047
:10500000359527958A95E1F7CE01622F0E94782782
:10501000CE01612F0E947827DF91CF911F910895D3
:1050200041E00E94E627089540E00E94E6270895A7
:1050300068E10E9414280895FC016685262F2460EB
:1050400026876C600E9414280895FC0166856B7F9A
:10505000668768600E9414280895DF93CF93CDB7C8
:10506000DEB728970FB6F894DEBF0FBECDBFFE01A6
:105070003196A9E6B8E028E00D9001922150E1F7C1
:10508000FC012189241710F4422F4150E42FF0E055
:10509000EE0FFF1FEC0FFD1F2181260F2068622FEE
:1050A0000E94142828960FB6F894DEBF0FBECDBF1D
:1050B000CF91DF91089561E00E94142880ED97E080
:1050C0000E94C9210895CF93DF93EC01423018F07C
:1050D0008D8588608D87498B1A8A222329F041307B
:1050E00019F48D8584608D8780E593EC0E94C92139
:1050F0008A8160E00E94CC228C8160E00E94CC22F8
:105100008B818F3F19F060E00E94CC226D8564FD99
:105110001DC0CE0163E00E94782784E991E10E94DE
:10512000C921CE0163E00E94782784E991E10E94C1
:10513000C921CE0163E00E94782786E990E00E94B1
:10514000C921CE0162E00E94782716C06062CE01BC
:105150000E94142884E991E10E94C9216D85606252
:10516000CE010E94142886E990E00E94C9216D8535
:105170006062CE010E9414286D856062CE010E949B
:10518000142884E08E87CE010E941C28CE010E9444
:105190005B2882E08F87CE0166E00E941428DF91B1
:1051A000CF9108956F927F928F92AF92CF92EF92AC
:1051B0000F931F93DF93CF93CDB7DEB73C01162F2C
:1051C000842FF301428323830483E582C682A7826E
:1051D00080869E8591879F859287988993879989F4
:1051E000948761E00E94A822F30183818F3F19F028
:1051F00061E00E94A822F301848161E00E94A8225C
:10520000112319F0F301158603C080E1F3018587AE
:10521000C30160E141E020E00E946328CF91DF916B
:105220001F910F91EF90CF90AF908F907F906F90E4
:1052300008958F92AF92CF92EF920F93CF93DF9317
:10524000A62F742F522F302FAE2C8C2CE3E6F8E0D3
:10525000EC01F983E88300D00F92EDB7FEB73196E9
:10526000CDB7DEB7198211821282138261E04A2F14
:105270002FEF072FE52EC32E0E94D2280F900F90FC
:105280000F900F90DF91CF910F91EF90CF90AF9053
:105290008F900895CF93DF938230910510F482E0D0
:1052A00090E0E0915313F091541340E050E020E07F
:1052B00030E026C06081718168177907E0F06817D7
:1052C000790781F4828193812115310531F0D9016B
:1052D00013969C938E9312972BC0909354138093A4
:1052E000531326C04115510519F06417750718F4BA
:1052F000AB01E901DF019F0172816381E72FF62F86
:105300003097C1F64115510501F1481B590B443046
:10531000510580F412968D919C911397209719F066
:105320009B838A8304C09093541380935313FD018D
:10533000329646C0FD01E40FF51F819391934250D0
:10534000504011965C934E933BC020915113309185
:1053500052132115310541F42091FD073091FE07CC
:1053600030935213209351132091FF07309100087E
:105370002115310541F42DB73EB74091FB075091FF
:10538000FC07241B350BE0915113F0915213E217E7
:10539000F307A0F42E1B3F0B2817390778F0AC0158
:1053A0004E5F5F4F2417350748F04E0F5F1F509335
:1053B0005213409351138193919302C0E0E0F0E0C7
:1053C000CF01DF91CF910895CF93DF93009709F438
:1053D00091C0FC0132971382128260915313709135
:1053E00054136115710581F420813181280F391F13
:1053F00080915113909152138217930799F5F0936E
:105400005213E093511376C0DB0180E090E002C0BC
:10541000CD01D901AE17BF0748F412962D913C91EA
:10542000139721153105A1F7CD0121C0B383A283C4
:10543000EF01499159919E01240F351FA217B3071F
:1054400079F42D913C911197240F351F2E5F3F4F1A
:105450003183208312962D913C91139733832283BD
:10546000009729F4F0935413E093531343C0DC01E5
:105470001396FC93EE9312974D915D91A40FB51F77
:10548000EA17FB0769F420813181240F351F2E5F55
:105490003F4FEC0139832883228133813B832A8368
:1054A000E0E0F0E002C0FB01BC01DB0112968D914F
:1054B0009C9113970097B9F79B012E5F3F4F8D91F9
:1054C0009C911197820F931F409151135091521349
:1054D0004817590779F4309729F410925413109211
:1054E000531302C013821282225030403093521361
:1054F00020935113DF91CF910895FC0188279927BC
:10550000E89421912032E9F3293010F02E30C8F3CD
:105510002B3241F02D3239F4689404C00E94282BBC
:10552000820F911D219120532A30C0F31EF49095D3
:1055300081959F4F0895F8940C94B72B911190C0CA
:10554000803219F089508550D0F70895FB01DC01B5
:105550000D900020E9F7119701900D920020E1F7DE
:105560000895FB01DC018D91019080190110D9F3A0
:10557000990B0895FB01DC0101900D920020E1F7E9
:105580000895DC015D91552331F0FB010190051672
:105590000110E1F7B9F7809590958A0F9B1F089548
:1055A000FB01DC014150504030F08D910190801999
:1055B00019F40020B9F7881B990B0895FB01DC0151
:1055C0004150504048F001900D920020C9F701C0B1
:1055D0001D9241505040E0F70895FB015191552331
:1055E000A9F0BF01DC014D9145174111E1F759F4D4
:1055F000CD010190002049F04D9140154111C9F3B2
:10560000FB014111EFCF81E090E001970895FB018C
:105610009F01E8944230C4F04532B4F44A3029F492
:1056200097FB1EF4909581959F4F642F77270E94DA
:10563000622B805D8A330CF0895D8193CB010097EA
:10564000A1F716F45DE251931082C9010C94332B3B
:105650007AE0979F902D879F802D910D11240895BA
:10566000992788270895DC01FC01672F7191772322
:10567000E1F7329704C07C916D9370836291AE170D
:10568000BF07C8F30895629FD001739FF001829F06
:10569000E00DF11D649FE00DF11D929FF00D839FC1
:1056A000F00D749FF00D659FF00D9927729FB00D5E
:1056B000E11DF91F639FB00DE11DF91FBD01CF0171
:1056C00011240895AA1BBB1B51E107C0AA1FBB1FD1
:1056D000A617B70710F0A61BB70B881F991F5A957E
:1056E000A9F780959095BC01CD010895A1E21A2EED
:1056F000AA1BBB1BFD010DC0AA1FBB1FEE1FFF1F76
:10570000A217B307E407F50720F0A21BB30BE40BC5
:10571000F50B661F771F881F991F1A9469F760950C
:105720007095809590959B01AC01BD01CF010895C6
:1057300097FB092E05260ED057FD04D0D7DF0AD0DF
:10574000001C38F450954095309521953F4F4F4FB0
:105750005F4F0895F6F790958095709561957F4F0E
:105760008F4F9F4F08950790F691E02D1994F8946C
:02577000FFCF69
:1057720064617461005249464600574156450066CD
:105782006D742000436F6D7072657373696F6E2064
:105792006E6F7420737570706F72746564004E6FF3
:1057A20074206D6F6E6F2F73746572656F210020A8
:1057B2005761726E696E672073746572656F2066D9
:1057C200696C6521004D6F7265207468616E2031CD
:1057D200362062697473207065722073616D706C1B
:1057E20065210053616D706C65207261746520746F
:1057F2006F6F206869676821004869676820726175
:10580200746520667261676D656E74656420666991
:105812006C65210020002F003A002B2D00534420FC
:10582200492F4F206572726F723A20002C20004679
:1058320061696C6564207065726D616E656E746C11
:1058420079004E6F2076616C696420464154207065
:105852006172746974696F6E210043616E277420EE
:105862006F70656E20726F6F7420646972210065BB
:105872007869740024242400434D4400636C6F73E0
:10588200650067657420697000463D555000726579
:10589200626F6F740073657420776C616E20686943
:1058A2006465200073657420776C616E2070687285
:1058B200617365200073657420776C616E20737369
:1058C2006964200073657420776C616E2061757461
:1058D20068200073657420776C616E206A6F696E50
:1058E20020007365742074696D6520656E61626C59
:1058F2006520007365742074696D65207A6F6E652A
:1059020020007365742074696D652061646472653A
:10591200737320007365742069702064686370205B
:10592200007365742069702061646472657373200A
:105932000073657420697020706F727400736574EF
:10594200206970206C6F63616C200073657420693C
:1059520070206761746577617920007365742069CE
:1059620070206E65746D61736B20007365742069BD
:10597200702070726F746F636F6C20007365742097
:10598200636F6D6D2072656D6F7465200073657451
:1059920020636F6D6D2074696D65200073657420DE
:1059A200636F6D6D2073697A65200073657420637F
:1059B2006F6D6D206D61746368200074696D6500A0
:1059C200736176650041542A505343504F4600415B
:1059D200542B434D474C3D004F4B002B434D474CFE
:1059E2003A002C0041542B43504D533D00534D007F
:1059F20041542B434D47443D312C340041542B43F9
:105A02004D47443D002C300052454320524541440D
:105A12000041542B434D47533D003F74656C3D009C
:105A22003D002600266D73673D000A0D00253230C9
:105A3200003C48544D4C3E3C484541443E3C544950
:105A4200544C453E343030204261642052657175B9
:105A52006573743C2F5449544C453E3C2F48454194
:105A6200443E3C424F44593E3C48313E42616420F0
:105A7200526571756573743C2F48313E596F75726A
:105A82002062726F777365722073656E7420612075
:105A920072657175657374207468617420746869C5
:105AA200732073657276657220636F756C64206E05
:105AB2006F7420756E6465727374616E642E3C50EF
:105AC2003E436C69656E742073656E74206D616C03
:105AD200666F726D656420486F73742068656164D7
